:020000040800F2
:100000005004002045010008BD130008DF1000085F
:10001000B9130008650A00089D21000800000000CF
:100020000000000000000000000000009B1A000813
:10003000E50A00080000000011180008AD1B0008C8
:100040005F0100085F0100085F0100085F01000810
:100050005F0100085F0100085F0100085F01000800
:100060005F0100085F0100085F0100085F010008F0
:100070005F0100085F0100085F0100085F010008E0
:100080005F0100085F0100085F0100085F010008D0
:100090005F0100085F0100085F0100085F010008C0
:1000A0005F0100085F0100085F0100085F010008B0
:1000B0005F010008291D00085F0100085F010008BA
:1000C0005F0100085F0100085F0100085F01000890
:1000D0005F010008C91E00085F0100085F010008F9
:1000E000090C00085F0100085F0100085F010008BB
:1000F0005F0100085F0100085F0100085F01000860
:100100005F0100085F0100085F0100085F0100084F
:100110005F0100085F0100085F0100085F0100083F
:100120005F0100085F0100085F0100085F0100082F
:10013000DFF80CD000F0BCFA004800471923000893
:10014000500400200648804706480047FEE7FEE7C7
:10015000FEE7FEE7FEE7FEE7FEE7FEE7FEE7FEE777
:10016000F51B000831010008F0B480EA0102D40F49
:100170004200B2EB410F02D20246084611464A0045
:1001800042D0C30DDDB2C1F3C752AD1A202D35DA0E
:10019000C1F3160141F4000204B15242C5F1200638
:1001A00002FA06F12A411044B3EBD05F23D0C4B168
:1001B000012DA0EBC35009DCF0BC4FF0004202EA75
:1001C000C352DBB200F5000000F0E6B9400000F1D8
:1001D000807000EBC350A0F1807040EAD1704900FC
:1001E00009E0490841EAC071A0EBC35000F50000E6
:1001F000400800EBC350F0BC00F0C5B961420122D9
:1002000002EB4101001BF6E7F0BC704781F00041B2
:10021000AAE780F00040A7E780EA010210B502F0EB
:100220000043400022D04A001FD0010E01EB1261B2
:10023000C0F35600C2F3560240F4000042F400023C
:10024000A0FB022000047F39140400D0401C50EAB7
:10025000124001D44000491EC2B20C0604EBD0107B
:10026000401C4008802A02D003E0002010BD20F08E
:100270000100002900DA0020184310BD30B480EAE4
:10028000010202F0004530F0004221F0004013D09E
:1002900090B1C30DD40DC2F31601C0F31600E41AD9
:1002A00041F4000140F400027D34914201D3641C0A
:1002B00000E04900002C02DA30BC002070474FF407
:1002C00000000023914201D3891A034340084FEAFA
:1002D0004101F7D151B1914202D14FF0004105E007
:1002E00002D24FF0010101E06FF0010103EBC450B5
:1002F000284430BC00F047B92DE9FE4F81EA0304E1
:1003000004F0004421F0004100944FF0000B23F072
:10031000004350EA01045ED052EA03045BD0C3F309
:100320000A54C1F30A552C44A4F2F3340194A0FBFF
:100330000254C1F3130141F48011C3F3130343F4D6
:10034000801301FB024400FB034E840A970A44EA2F
:10035000815447EA8357A4FB076802958D0A05FB81
:1003600007854FEA932C04FB0C542705029D4FEAA6
:10037000065847EA1637B5EB08056EEB070C870EF3
:10038000920E47EA811742EA8312A7FB0201B6EBFD
:100390000B0164EB00042B0D43EA0C335E1844EBB5
:1003A0001C50DA465146E7FB0201C5F313044FEA3D
:1003B0000B3343EA14534FEA0432019C43EA060329
:1003C000A4F10C040294009CCDE900B400F021F9E2
:1003D00003B0BDE8F08F00200146F9E72DE9F04DAC
:1003E00081EA030404F0004B21F0004514464FF06D
:1003F000000A23F0004150EA050220D054EA01022D
:100400001DD0C5F30A570246C5F31303C1F3130009
:10041000C1F30A5640F4801543F48013A7EB060895
:10042000101BD64608F2FD3873EB050002D308F125
:10043000010801E092185B41B8F1000F03DA0020D7
:100440000146BDE8F08D00204FF480110646844639
:100450000EE0171B73EB050705D3121B63EB0503B7
:1004600006434CEA010C49084FEA300092185B4100
:1004700050EA0107EDD152EA030012D082EA0400EB
:1004800083EA0501084305D0101BAB4106D20122C7
:10049000002306E000224FF0004302E06FF001026B
:1004A00053101AEB06004CEB085110EB0A0041EB1D
:1004B0000B01BDE8F04D00F09DB80EB540F23341A0
:1004C00002910021CDE900110A460B4600F0A1F887
:1004D00003B000BD20F00040C10DC0F3160040F491
:1004E00000007F2901DA00207047962903DCC1F162
:1004F0009601C8407047963988407047C1F30A5248
:1005000010B5C1F3130140F2FF3341F480119A4258
:1005100001DA002010BD40F233439A42A2F2334286
:1005200003DC524200F01FF810BD904010BD01F0F6
:10053000004330B421F0004150EA010206D00A0D18
:10054000A2F56072C1F31301002A02DC30BC002066
:100550007047440F44EAC104C100E01830BC00EB0E
:10056000C25000F010B8202A04DB203A21FA02F031
:100570000021704721FA02F3D040C2F120029140DD
:100580000843194670470029A8BF7047401C49001E
:1005900008BF20F00100704710B4B0FA80FC00FAE8
:1005A0000CF050EA010404BF10BC704749B1CCF113
:1005B000200421FA04F411FA0CF118BF012121439F
:1005C0000843A3EB0C01CB1D4FEA00614FEA10205A
:1005D00042BF002010BC704700EBC35010440029FC
:1005E000A4BF10BC7047401C490008BF20F00100A8
:1005F00010BC704710B5141E73F1000408DA401CDB
:1006000041F1000192185B411A4301D120F0010031
:1006100010BD2DE9F04D92469B4611B1B1FA81F221
:1006200002E0B0FA80F22032904600F053F804461F
:100630000F4640EA0A0041EA0B0153465A46084376
:1006400013D0114653EA010019D0C8F140025046B8
:10065000FFF789FF05460E4650465946424600F0D0
:1006600039F8084305D0012004E020463946BDE8AA
:10067000F08D0020054346EAE0762C4337430A9884
:100680006305E40AA0EB08000022FD0A44EA47548F
:100690000A3002D500200146E9E701051019694139
:1006A000DDE9084500196941BDE8F04DA2E7000009
:1006B000064C074D06E0E06840F0010394E80700AF
:1006C00098471034AC42F6D3FFF736FDEC2B000808
:1006D0000C2C0008202A04DB203A00FA02F100204A
:1006E00070479140C2F1200320FA03F31943904070
:1006F000704721B1826842F00102826003E08268A3
:1007000022F001028260704710B50446124884420C
:1007100008D10121401501F0A9F80021601501F070
:10072000A5F817E00D48844208D10121001501F019
:100730009DF80021201501F099F80BE0084884424B
:1007400008D10121C80301F091F800214FF40040C5
:1007500001F08CF810BD0000002401400028014089
:10076000003C0140014600208A6802F004020AB100
:10077000012000E0002070470146C86C80B270473D
:100780000246002013680B400BB1012000E000205E
:100790007047014600208A6802F008020AB1012071
:1007A00000E000207047000030B502460020002322
:1007B00050680F4C20400D790C6844EA0524204312
:1007C000506090680B4C2040D1E902542C434D7985
:1007D00044EA450420439060D06A20F470000C7C09
:1007E000641EE4B2234340EA0350D06230BD0000EF
:1007F000FFFEF0FFFDF7F1FFF0B504460D460020C7
:100800000021092D11DDE068A5F10A0606EB460777
:10081000072606FA07F18843A5F10A0606EB460605
:1008200003FA06F10843E0600CE0206905EB450798
:10083000072606FA07F1884305EB450603FA06F199
:1008400008432061072A0FDA606B561E06EB860705
:100850001F2606FA07F18843561E06EB860605FAA0
:1008600006F10843606322E00D2A0FDA206BD61FE1
:1008700006EB86071F2606FA07F18843D61F06EB0C
:10088000860605FA06F10843206310E0E06AA2F14B
:100890000D0606EB86071F2606FA07F18843A2F12C
:1008A0000D0606EB860605FA06F10843E062F0BD88
:1008B000816841F008018160704721B1826842F48B
:1008C000A002826003E0826822F4A0028260704786
:1008D000816841F0040181607047000000B585B077
:1008E0000121480200F0B2FF4FF4004000F092FFF7
:1008F0001648FFF709FF002000908DF804008DF8DE
:1009000005004FF4602002900020039001208DF834
:10091000100069460D48FFF747FF01210B48FFF71C
:10092000E8FE0A48FFF7C4FF00BF0848FFF731FFA1
:100930000028FAD10548FFF7CBFF00BF0348FFF7B7
:1009400011FF0028FAD105B000BD000000240140CD
:1009500010B5012000F020F8072000F01DF811204C
:1009600000F01AF810BD10B500F08CFC472000F024
:100970005BFC00F0CFFC012000F020FC04464FF6A9
:10098000FF7000EA0424002000F018FC204484B228
:1009900000F09CFC204610BD10B5044600BF00F0DE
:1009A00071FC462000F040FC00F0B4FC0028F6D1B9
:1009B000204600F039FC00F0ADFC00F087FC10BDD3
:1009C00010B5012000F03EF8642001F009FC002081
:1009D00000F038F8642001F003FC10BD08B50121D7
:1009E000192000F033FF0121134800F07FFA08209E
:1009F000ADF8000010208DF8030003208DF80200F0
:100A000069460E4800F0E6F94FF48040ADF800006A
:100A100010208DF8030003208DF802006946084875
:100A200000F0D8F94FF48041054800F0B2FA0020F8
:100A300000F008F808BD000000023000000C014082
:100A40000010014010B5044624B90821044800F004
:100A5000A0FA03E00821024800F099FA10BD000056
:100A6000000C014000BFFEE708B50121042000F0A2
:100A7000EDFE4FF48070ADF8000010208DF80300FB
:100A800003208DF802006946044800F0A3F94FF4F2
:100A90008061024800F07DFA08BD000000080140B6
:100AA00008B54FF48070ADF8000048208DF80300C1
:100AB0006946024800F08EF908BD000000080140B8
:100AC00008B54FF48070ADF8000010208DF80300D9
:100AD00003208DF802006946014800F07BF908BD4B
:100AE000000801407047000001200149087070476C
:100AF0000800002008B52348007820B901202149CA
:100B0000087000F0B1FC20A20021084600F026FE8B
:100B10001FA20221002000F021FE1FA204210020BC
:100B200000F01CFE1EA20621002000F017FE10207F
:100B300000901D480289042300213C2000F0CCFDD8
:100B40001020009018480288042302213C2000F065
:100B5000C3FD1020009014480279022304213C2098
:100B600000F0BAFD11A204214C2000F0F7FD102086
:100B700000900D488278022306213C2000F0ACFD55
:100B800008BD00000900002059616E57753A000049
:100B90004775616E673A000057656E44753A00000C
:100BA00053686944753A0000340000204300000097
:100BB00008B50B48007820B901200949087000F0F9
:100BC00053FC08A20021084600F0C8FD1020009048
:100BD00006484289042300213C2000F07DFD08BD29
:100BE00009000020504D646174613A003400002017
:100BF00010B50448007820B901200249087000F0BF
:100C000033FC10BD0900002010B54FF4004000F087
:100C100027F828B102200E490860800300F01AF876
:100C20004FF4805000F01CF828B1012008490860FA
:100C3000000300F00FF84FF4804000F011F828B1E5
:100C4000022003490860400300F004F810BD0000D2
:100C500008000020014908607047000014040140AA
:100C6000014600200022074B1B6803EA0102054BE6
:100C700014331B680B4013B10AB1012000E00020BF
:100C80007047000000040140002123498279002AB6
:100C90003AD00A46126803689A430B461A600A1D46
:100CA000126803689A430B1D1A60027911440A689E
:100CB00003681A430A60184A0832126803689A43A4
:100CC000154B08331A601A1D126803689A43124BB9
:100CD0000C331A604279102A0ED11A1F1268036869
:100CE0001A430D4B08331A601A1D126803681A4321
:100CF000094B0C331A600DE00749427911440A6828
:100D000003681A430A6005E0027911440A6803681F
:100D10009A430A6070470000000401402DE9FC4737
:100D200004460D4616461F46DDE90A89012108469C
:100D300000F08CFD00948DF806708DF804508DF84D
:100D400005604946404600F025F86846FFF79CFFDD
:100D5000BDE8FC8708B50120ADF8000010208DF833
:100D6000030069460A4800F035F80220ADF800009B
:100D700000208DF803006946054800F02BF801219A
:100D8000082000F063FD0121014800F002F908BDD0
:100D9000000C014030B500228B071C0F0F2303FA13
:100DA00004F20B4B8C1053F824309343084C8D10F5
:100DB00044F8253023468C1053F824308C07240F38
:100DC00000FA04F42343024C8D1044F8253030BD62
:100DD000080001402DE9F0410246002500260020D0
:100DE00000230024002791F803C00CF00F0591F8B0
:100DF00003C00CF0100CBCF1000F03D091F802C03E
:100E00004CEA050591F800C0BCF1000F31D0146820
:100E100000202BE04FF0010C0CFA00F3B1F800C0F9
:100E20000CEA03069E4220D183004FF00F0C0CFA0F
:100E300003F7BC4305FA03FC4CEA040491F803C031
:100E4000BCF1280F06D14FF0010C0CFA00FCC2F8DF
:100E500014C00AE091F803C0BCF1480F05D14FF06F
:100E6000010C0CFA00FCC2F810C0401C0828D1D3B9
:100E70001460B1F800C0BCF1FF0F34DD54680020ED
:100E80002EE000F1080C4FF0010808FA0CF3B1F85D
:100E900000C00CEA03069E4221D183004FF00F0CE4
:100EA0000CFA03F7BC4305FA03FC4CEA040491F87E
:100EB00003C0BCF1280F05D100F1080C08FA0CF8AA
:100EC000C2F8148091F803C0BCF1480F07D100F1BB
:100ED000080C4FF0010808FA0CF8C2F81080401C0A
:100EE0000828CED35460BDE8F0810000F0B50A4672
:100EF000002300240021002500F00046B6F1004F39
:100F000002D11D4EF16901E01B4E7168C0F303452B
:100F100083B200F44016B6F5401F08D121F070618D
:100F2000154E766826F07066134F7E6012E000F46E
:100F30008016B6F5801F06D1032606FA05F4A143F4
:100F400041F0706106E0460D360103FA06F6B14342
:100F500041F0706122B1460D360103FA06F63143C5
:100F600000F00046B6F1004F02D1034EF16101E0FE
:100F7000014E7160F0BD00000000014002460020FB
:100F800093680B400BB1012000E0002070474161E5
:100F900070470161704770B504460025002604E0E3
:100FA00000F00AF80544701CC6B2A642F8DBB5FB97
:100FB000F4F080B270BD00002DE9FC5F4FF48C7A34
:100FC0004FF0000B01211E48FFF7E1FF504601F0F2
:100FD0002DF90521092000F057F80190282001F093
:100FE00025F901211648FFF7D4FF42F2D05001F055
:100FF0001DF90198FFF761FA80464FF06632114BF8
:10100000FFF77AF9064600220F4BFFF7E7F904468F
:10101000FFF78DFA00904FF07E510098FFF7A4F88B
:1010200005460A49FFF7F8F804460949FFF726F98B
:1010300083465846FFF74EFA80B2BDE8FC9F000099
:10104000000C014066660A400000B04000007A448F
:101050000000204110B5044607230122214609481B
:10106000FFF7CAFB01210748FFF727FC00BF022159
:101070000448FFF785FB0028F9D00248FFF77CFB06
:1010800010BD0000002401402DE9F04107460C4648
:101090000025002608E03846FFF7DCFF0544052060
:1010A00001F09EF8701CC6B2A642F4DBB5FBF4F06A
:1010B00080B2BDE8F08170B50024002508E004206E
:1010C000FFF7C8FF0444052001F08AF8681CC5B288
:1010D000052DF4DB0520B4FBF0F080B270BD00BF3D
:1010E000FEE7000010B500200E4908600E480068B9
:1010F00020F070400C4908600846006840F04050FD
:10110000086000200949C1F89C0100F011F8012095
:101110000449086000F00CF800200449C1F8980167
:1011200010BD000098812142000C01400080214246
:1011300010B5022001F07AF810BD000008B50121B9
:10114000082000F083FBC020ADF8000010208DF8CF
:10115000030003208DF8020069460448FFF73AFEB9
:10116000C0210248FFF715FF08BD0000000C014038
:1011700010B500200E4908600E48006820F070404D
:101180000C4908600846006840F0405008600120A3
:101190000949C1F89C01FFF7CBFF01200449086011
:1011A000FFF7C6FF00200449C1F8980110BD0000F8
:1011B00098812142000C01400080214270B5054613
:1011C00000241648006820F0704014490860084662
:1011D000006840F000400860002614E0002010493C
:1011E0000860FFF7A5FF01200E49C1F898016006CD
:1011F000040E0B487C38006808B1601CC4B2FFF7CD
:1012000097FF701CC6B2082EE8DB15B9FFF7B0FFD8
:1012100001E0FFF767FF204670BD0000000C0140B1
:10122000988121420080214270B50446124800682E
:1012300020F07040104908600846006840F04050B7
:10124000086000200D490860002512E0E0090B4904
:10125000091D08606006040E01200949C1F89801C3
:10126000FFF766FF002005490860FFF761FF681C73
:10127000C5B2082DEADB70BD000C01409881214207
:101280000080214210B50E48006820F070400C49E3
:1012900008600846006840F0405008600120094995
:1012A00008600949C1F89801FFF742FF002005498D
:1012B0000860FFF73DFF00200349C1F8980110BD09
:1012C000000C01409C8121420080214210B50E4853
:1012D000006820F070400C4908600846006840F043
:1012E000405008600020094908600949C1F89C0184
:1012F000FFF71EFF0120054908600549C1F89C0160
:10130000FFF716FF10BD0000000C0140988121423C
:101310000080214210B500241448006820F070407D
:10132000124908600846006840F00040086001204B
:101330000F490860FFF7FCFE01200E49C1F8980133
:10134000FFF7F6FE07E0601CC4B2FA2C03DDFFF7DE
:10135000BDFF012010BD0648803800680028F2D18A
:101360000349091F086000BFF4E70000000C0140BA
:101370009C81214200802142014688200D4A107044
:1013800088785070C87890700879D070487910715A
:10139000887A50710889000A9071087AD0710878AB
:1013A00010720888000A50720A2090720D20D072C4
:1013B000012070474000002000BFFEE7704700009A
:1013C00070B5002100230F22C47804B3154C2468A3
:1013D00004F4E064C4F5E064210AC1F10403CA40E6
:1013E000447804FA03F184781440214309010E4C37
:1013F0000678A155047804F01F050124AC40057857
:101400006D11AD0005F1E025C5F8004109E0047853
:1014100004F01F050124AC40044D0678761145F810
:10142000264070BD0CED00E000E400E080E100E04B
:1014300002490143024A1160704700000000FA05AA
:101440000CED00E0F8B504460D4616461F468DF833
:1014500000408DF803708DF801508DF802606846E9
:10146000FFF7AEFFF8BD000070B5002419E004F1ED
:10147000B001C8B2002100F08DF90021084600F04B
:1014800089F90021102000F085F9002505E00121EF
:10149000002000F07FF9681CC5B2802DF7DB601CCE
:1014A000C4B2082CE3DB00200149086070BD0000D5
:1014B0000900002008B50121042000F0C7F9A02090
:1014C000ADF8000010208DF8030003208DF8020015
:1014D00069465748FFF77EFCA0215548FFF759FDA4
:1014E0000121082000F0B2F94FF44050ADF800009F
:1014F00010208DF8030003208DF8020069464D4846
:10150000FFF768FC4FF440514A48FFF742FD4FF4A3
:1015100080514848FFF73DFD642000F061FE4FF424
:1015200080514448FFF733FDC82000F059FE4FF4C6
:1015300080514048FFF72DFD0021AE2000F02AF930
:101540000021084600F026F90021102000F022F9C1
:101550000021402000F01EF90021812000F01AF93E
:101560000021CF2000F016F90021A12000F012F98F
:101570000021C82000F00EF90021A62000F00AF991
:101580000021A82000F006F900213F2000F002F918
:101590000021D32000F0FEF80021084600F0FAF800
:1015A0000021D52000F0F6F80021802000F0F2F8AC
:1015B0000021D92000F0EEF80021F12000F0EAF837
:1015C0000021DA2000F0E6F80021122000F0E2F815
:1015D0000021DB2000F0DEF80021402000F0DAF8E6
:1015E0000021202000F0D6F80021022000F0D2F8DF
:1015F00000218D2000F0CEF80021142000F0CAF860
:101600000021A42000F0C6F80021A62000F0C2F8B6
:101610000021AF2000F0BEF80021AF2000F0BAF8A2
:10162000FFF722FF0021084600F006F808BD000081
:1016300000080140000C014070B504460D4605F15C
:10164000B001C8B2002100F0A5F8102141EA141041
:10165000002100F09FF804F00F0141F0010000218B
:1016600000F098F870BD00002DE9F04107460E46E5
:10167000904600250024A8F12000C5B27F2F02DD8E
:101680000027B01CC6B231463846FFF7D5FF00240C
:1016900008E004EB05110F4A505C012100F07AF8D4
:1016A000601CC4B2082CF4DB701CC1B23846FFF7D2
:1016B000C3FF002409E004EB05110831054A505C22
:1016C000012100F067F8601CC4B2082CF3DBBDE810
:1016D000F0810000FC2500082DE9FF5F07469146D8
:1016E0001D460E9E4FF0000A002433E0281B401ECA
:1016F000C1B20A2000F03CFEB9FBF0F00A21B0FBB9
:10170000F1F201FB1208BAF1000F13D1681EA042DA
:1017100010DDB8F1000F0BD1B34606EBDB714910B9
:1017200001FB0471C8B220220199FFF79DFF0FE071
:101730004FF0010AB34606EBDB71491001FB04715F
:10174000C8B208F13001CAB20199FFF78DFF00BF9E
:10175000601CC4B2AC42C9DBBDE8FF9F2DE9F0417B
:1017600004460F46154600260EE0AA5D394620467F
:10177000FFF77AFF04F10800C4B2782C02DD0024E0
:10178000B81CC7B2701CC6B2A85D0028EDD1BDE878
:10179000F081000070B504460E462EB14FF40051A2
:1017A0001948FFF7F6FB04E04FF400511648FFF725
:1017B000EEFB10211548FFF7EAFB002517E020217A
:1017C0001248FFF7E4FB04F0800020B180210F48AD
:1017D000FFF7DFFB03E080210C48FFF7D8FB202157
:1017E0000A48FFF7D6FB6006040E681CC5B2082D38
:1017F000E5DB10210548FFF7CCFB4FF40051024810
:10180000FFF7C7FB70BD0000000C0140000801405D
:101810007047000001460020034A506820F4404011
:1018200008435060704700000010024029B1064A8A
:10183000D2690243044BDA6104E0034AD26982436D
:10184000014BDA61704700000010024029B1064ADE
:1018500092690243044B9A6104E0034A926982430D
:10186000014B9A61704700000010024029B1064AFE
:10187000D2680243044BDA6004E0034AD268824330
:10188000014BDA60704700000010024030B50021C3
:101890000022002400232D4D6D6805F00C0121B1BC
:1018A000042905D0082923D105E0294D056022E04F
:1018B000274D05601FE0254D6D6805F47012234D1E
:1018C0006D6805F48034022505EB92421CB9214D68
:1018D000554305600BE01D4D6D6805F400351DB1E5
:1018E0001C4D5543056002E0194D5543056002E06B
:1018F000174D056000BF00BF144D6D6805F0F00185
:101900000909154D6B5C0568DD4045600F4D6D683C
:1019100005F4E061090A104D6B5C4568DD408560A7
:101920000A4D6D6805F46051C90A0B4D6B5C456842
:10193000DD40C560054D6D6805F44041890B074DDC
:101940006B5CC568B5FBF3F5056130BD0010024066
:1019500000127A0000093D000A0000201A00002051
:1019600070B50025002427E000BF4FF480711448B3
:10197000FFF704FB0028F8D0282000F057FC4FF4B4
:1019800080710F48FFF7FAFA01280ED100BF4FF41B
:1019900080710B48FFF7F2FA0128F8D0C4F1070173
:1019A00001208840C0B2054304E0C4F107010120D2
:1019B00088408543601CC4B2082CD5DB284670BD26
:1019C0000008014010B50446FFF77AF84FF4807123
:1019D0002648FFF7DCFA122000F002FC4FF4807179
:1019E0002248FFF7D6FA1E2000F020FCFFF758F837
:1019F0004FF480711D48FFF7C1FA88BB00BF4FF458
:101A000080711A48FFF7BAFA0028F8D000BF4FF4E7
:101A100080711648FFF7B2FA0128F8D0FFF7A0FF4F
:101A20002070FFF79DFF6070FFF79AFFA070FFF72F
:101A300097FFE070FFF794FF2071FFF741F84FF434
:101A400080710A48FFF7A5FA207861780844A178E8
:101A50000844E17808442179884202D1012010BD70
:101A600001E00020FBE70020F9E70000000801404A
:101A700010B50446012C04D0022C05D0032C07D14C
:101A800005E0FFF737F806E0FFF792F803E002E021
:101A9000FFF7AEF800BF00BF10BD704710B500F0F3
:101AA00001F810BD0CB5002001900090334800688B
:101AB00040F480303149086000BF3048006800F4CD
:101AC000003000900198401C0190009818B90198CE
:101AD000B0F5A06FF1D12948006800F4003010B1D2
:101AE0000120009001E0002000900098012843D1DF
:101AF0002348006840F0100021490860084600684B
:101B000020F0030008600846006840F0020008600A
:101B10001A484068194948600846406848600846C5
:101B2000406840F4806048600846406820F47C10BB
:101B300048600846406840F4E8104860084600687D
:101B400040F08070086000BF0C48006800F0007032
:101B50000028F9D00948406820F003000749486090
:101B60000846406840F00200486000BF03484068F3
:101B700000F00C000828F9D10CBD00000010024054
:101B800000200240042808D14FF0E021096941F00B
:101B900004014FF0E022116107E04FF0E0210969F4
:101BA00021F004014FF0E0221161704770470000FE
:101BB00010B56FF00400FFF7E5FF0A4800680A4916
:101BC000B0FBF1F0094908700846007800EB4001CD
:101BD000C1EBC0104FF6FF7101EAC0000449088054
:101BE00010BD00002000002000127A00020000203A
:101BF0000400002010B51348006840F001001149AE
:101C0000086008464068104908400E494860084688
:101C100000680E4908400B4908600846006820F437
:101C2000802008600846406820F4FE0048604FF4B9
:101C30001F008860FFF732FF4FF000600449086022
:101C400010BD0000001002400000FFF8FFFFF6FE8C
:101C500008ED00E01FB500F047FAFEF73FFEFFF782
:101C6000A7FFFFF727FCFFF7FFFBFEF7B7FEFEF726
:101C7000FBFEFFF763FAFEF76BFEFFF76BF8FEF76C
:101C800033FF00F071F801211D20FFF7DFFD4FF455
:101C9000A060FFF7CDFB4FF400721021204800F048
:101CA00089FB0F2001210C220023CDE90032CDE970
:101CB0000210CB030A46282000F014FB0C20002160
:101CC000CDE900104FF480530122CDE902101146F6
:101CD000282000F007FB0E2001210C220023CDE973
:101CE0000032CDE902108B030A46282000F0FAFAF0
:101CF0004FF4804228210A4800F05CFB4FF4004278
:101D00002821074800F056FB4FF48052282105484F
:101D100000F050FB4FF400710148FFF738F91FBD88
:101D2000000C01400008014010B501210B4800F0F3
:101D30005EF8012811D10A480078401C0849087053
:101D4000084600780A2804D10020087001200549BF
:101D500008700121014800F03BF810BD000400406C
:101D600007000020060000201FB54FF4A060FFF719
:101D70005FFB01210220FFF759FD40F2F310ADF89F
:101D800004000020ADF80200ADF8060041F61F4047
:101D9000ADF8000069460D4800F044F801221146F4
:101DA0000A4800F035F81D208DF80C0001208DF850
:101DB0000F008DF80D008DF80E0003A8FFF700FB53
:101DC0000121024800F007F81FBD00000004004098
:101DD000CA430282704721B1028842F001020280A8
:101DE00004E002884FF6FE731A400280704730B557
:101DF0000246002000230024158A05EA0103958984
:101E000005EA010413B10CB1012000E0002030BD4F
:101E10001AB183890B43838102E083898B438381D9
:101E200070470000002202881D4B98420ED01D4BC7
:101E300098420BD0B0F1804F08D01B4B984205D090
:101E40001A4B984202D01A4B984204D14FF68F7326
:101E50001A404B881A43174B984207D0164B9842AA
:101E600004D04FF6FF431A40CB881A4302808B8878
:101E700083850B8803850A4B98420BD0094B984207
:101E800008D00E4B984205D00D4B984202D00D4B16
:101E9000984201D10B7A03860123838270470000A8
:101EA000002C0140003401400004004000080040C4
:101EB000000C0040001000400014004000400140B1
:101EC000004401400048014010B540F2255114483B
:101ED00000F045F818B1124800F0FCF804460D2C4B
:101EE00013D11048007840B94FF480410E48FFF7F5
:101EF00050F801200B49087007E04FF480410A4870
:101F0000FFF745F80020074908700F2C06D1FEF7AF
:101F100057FD4FF480410448FFF739F810BD000029
:101F200000380140000000200010014021B18289EA
:101F300042F40052828104E082894DF6FF731A4018
:101F40008281704702460020B1F5007F00D100BFBA
:101F500013880B400BB1012000E00020704770B5E2
:101F60000246002400230025002040F66A16B142F4
:101F700000D100BFC1F3421501F01F03012606FA8C
:101F800003F3012D02D19689334006E0022D02D1E0
:101F9000168A334001E0968A33400C12012606FA75
:101FA00004F41688344013B10CB1012000E0002085
:101FB00070BDF0B50346002400260025002040F641
:101FC0006A17B94200D100BF1846C1F3421401F0AC
:101FD0001F06012707FA06F5012C01D10C3004E099
:101FE000022C01D1103000E014301AB107682F43E1
:101FF000076002E00768AF430760F0BD2DE9F047D6
:1020000086B005460E460024A24600BFA146002722
:10201000B08900B100BF2F462C8A4CF6FF700440F7
:10202000F08804432C82AC894EF6F3100440B0884B
:1020300031890843718908430443AC81AC8A4FF667
:10204000FF400440B0890443AC8201A8FFF71EFCA6
:102050001F48874202D1DDF810A001E0DDF80CA096
:10206000A88900F4004040B10AEBCA0000EB0A1056
:1020700031684900B0FBF1F807E00AEBCA0000EB59
:102080000A1031688900B0FBF1F86420B8FBF0F069
:1020900004012009642101FB1089A88900F4004093
:1020A00040B1322000EBC900B0FBF1F000F00700B6
:1020B000044308E0322000EB09106421B0FBF1F08A
:1020C00000F00F0004432C8106B0BDE8F08700004B
:1020D0000038014001468888C0F308007047C1F30A
:1020E000080282807047000000B587B001210420FB
:1020F000FFF7ACFB01218803FFF7A8FB4FF4A060BA
:10210000FFF796F918208DF81B004FF40070ADF81A
:10211000180003208DF81A0006A91E48FEF75AFE83
:1021200004208DF81B000002ADF8180003208DF884
:102130001A0006A91748FEF74DFE25208DF8040069
:1021400001208DF807008DF805008DF8060001A824
:10215000FFF736F94FF4E13002900020ADF814009B
:102160000C20ADF812000020ADF81000ADF80E0004
:10217000ADF80C00012240F225510748FFF719FF86
:1021800002A90548FFF73AFF01210348FFF7CEFEF9
:1021900007B000BD000801400038014000BFFEE765
:1021A00010B5044621460548FFF799FF00BF4021BE
:1021B0000248FFF7C7FE0028F9D010BD00380140E3
:1021C00002E008C8121F08C1002AFAD17047704700
:1021D000002001E001C1121F002AFBD1704700005E
:1021E0000146114A12884A434FF0E0235A61002207
:1021F0009A611A46126942F001021A6100BF4FF05B
:10220000E022106900F001021AB100F48032002AC5
:10221000F5D04FF0E022126922F001024FF0E023E6
:102220001A6100229A617047040000200146114A99
:1022300012784A434FF0E0235A6100229A611A460D
:10224000126942F001021A6100BF4FF0E0221069EA
:1022500000F001021AB100F48032002AF5D04FF0EC
:10226000E022126922F001024FF0E0231A610022FD
:102270009A617047020000202DE9FE4304460020C9
:10228000ADF80000ADF80A00ADF808000DF102004D
:10229000FFF798FBFEF767FB8146FEF70EF907464E
:1022A0004FF033320E4BFEF799F80546FEF726F94C
:1022B00080B2ADF800000520FEF76DFEADF80A0013
:1022C000FEF7F9FEADF808000DF10200FFF77AFB0A
:1022D00000982060019860600298A060BDE8FE83CD
:1022E0003333F33F2DE9FC5F05460E4617461C4687
:1022F000DDE90EABDDE90C8901233A46314628467B
:10230000FFF7A0F801234A4641462046CDE900AB3D
:10231000FEF704FDBDE8FC9F0EB5FFF79BFC20E037
:102320001048007880B16846FFF7A6FF0E48009974
:10233000016001994160029981600C490878FFF7BA
:1023400097FB00200749087007480089B0F5FA6F2D
:1023500001DDFEF735FB00F017F84FF47A70FFF758
:102360003FFFDDE7060000203400002008000020C9
:1023700010B50246012000E050430B00A1F101041A
:10238000E1B2F9D110BD000010B508240748FEF7EE
:10239000F3FF48B1002405E00549085DFFF700FFA1
:1023A000601CC4B20C2CF7DB10BD00003400002010
:1023B00040000020F8B506460C4615468DF803404F
:1023C000ADF8005003208DF8020069463046FEF754
:1023D00001FDF8BD0000000000000000002F00001B
:1023E00000000700070000147F147F1400242A7FD8
:1023F0002A12006264081323003649552250000057
:102400000503000000001C224100000041221C00C6
:102410000014083E08140008083E0808000000A048
:102420006000000808080808000060600000002044
:1024300010080402003E5149453E0000427F400022
:10244000004261514946002141454B3100181412A8
:102450007F10002745454539003C4A494930000175
:102460007109050300364949493600064949291EC4
:102470000000363600000000563600000008142226
:102480004100001414141414000041221408000226
:102490000151090600324959513E007C1211127C4B
:1024A000007F49494936003E41414122007F414178
:1024B000221C007F49494941007F09090901003E6A
:1024C0004149497A007F0808087F0000417F4100A8
:1024D000002040413F01007F08142241007F40401E
:1024E0004040007F020C027F007F0408107F003E06
:1024F0004141413E007F09090906003E4151215EEC
:10250000007F091929460046494949310001017FE8
:102510000101003F4040403F001F2040201F003F7E
:102520004038403F00631408146300070870080730
:1025300000615149454300007F41410000552A5543
:102540002A55000041417F000004020102040040BE
:1025500040404040000001020400002054545478E0
:10256000007F484444380038444444200038444400
:10257000487F00385454541800087E09010200189E
:10258000A4A4A47C007F080404780000447D4000DB
:10259000004080847D00007F102844000000417FBF
:1025A0004000007C04180478007C0804047800389B
:1025B0004444443800FC242424180018242418FC23
:1025C000007C0804040800485454542000043F448C
:1025D0004020003C4040207C001C2040201C003C4F
:1025E0004030403C004428102844001CA0A0A07C9F
:1025F000004464544C4414141414141400000000D7
:10260000000000000000000000000000000000F8D2
:1026100000000000000000333000000000100C0635
:10262000100C0600000000000000000040C07840D0
:10263000C0784000043F04043F040400007088FC9C
:1026400008300000001820FF211E0000F008F000F4
:10265000E018000000211C031E211E0000F0088865
:10266000700000001E2123241927211010160E00CF
:10267000000000000000000000000000000000E07A
:10268000180402000000000718204000000204188F
:10269000E00000000040201807000000404080F0EB
:1026A000804040000202010F01020200000000F021
:1026B000000000000101011F0101010000000000F5
:1026C0000000000080B0700000000000000000006A
:1026D00000000000000101010101010100000000F3
:1026E000000000000030300000000000000000008A
:1026F00080601804006018060100000000E0100867
:102700000810E000000F102020100F00001010F83B
:10271000000000000020203F20200000007008087A
:1027200008887000003028242221300000300888FA
:10273000884830000018202020110E000000C02022
:1027400010F8000000070424243F240000F8088843
:10275000880808000019212020110E0000E01088D0
:1027600088180000000F112020110E000038080802
:10277000C83808000000003F000000000070880812
:1027800008887000001C222121221C0000E0100893
:102790000810E0000000312222110F00000000C0EC
:1027A000C000000000000030300000000000008089
:1027B0000000000000008060000000000000804079
:1027C0002010080000010204081020004040404092
:1027D00040404000040404040404040000081020E5
:1027E000408000000020100804020100007048082A
:1027F0000808F0000000003036010000C030C82892
:10280000E810E0000718272423140B000000C0384C
:10281000E0000000203C23020227382008F88888C6
:1028200088700000203F202020110E00C0300808D2
:1028300008083800071820202010080008F80808A9
:102840000810E000203F202020100F0008F88888A2
:10285000E8081000203F20202320180008F888886E
:10286000E8081000203F200003000000C0300808E6
:102870000838000007182020221E020008F808006F
:102880000008F808203F210101213F20000808F836
:10289000080800000020203F202000000000080859
:1028A000F8080800C08080807F00000008F888C019
:1028B00028180800203F20012638200008F80800CA
:1028C00000000000203F20202020300008F8F80001
:1028D000F8F80800203F003F003F200008F830C013
:1028E0000008F808203F200007183F00E010080803
:1028F0000810E0000F10202020100F0008F8080832
:102900000808F000203F210101010000E010080844
:102910000810E0000F18242438504F0008F8888869
:1029200088887000203F2000030C30200070880849
:10293000080838000038202121221C00180808F857
:10294000080818000000203F2000000008F80800D8
:102950000008F808001F202020201F0008788800A9
:1029600000C83808000007380E010000F80800F819
:102970000008F800033C0700073C030008186880C3
:102980008068180820302C03032C30200838C80039
:10299000C83808000000203F200000001008080888
:1029A000C83808002038262120201800000000FE2A
:1029B000020202000000007F40404000000C30C0D6
:1029C00000000000000000010638C0000002020202
:1029D000FE000000004040407F00000000000402B4
:1029E00002020400000000000000000000000000DF
:1029F00000000000808080808080808000020204CF
:102A000000000000000000000000000000008080C6
:102A1000808000000019242222223F2008F8008034
:102A200080000000003F112020110E0000000080F7
:102A300080800000000E1120202011000000008086
:102A40008088F800000E112020103F2000008080B8
:102A500080800000001F222222221300008080F0CC
:102A6000888888180020203F2020000000008080F7
:102A700080808000006B94949493600008F800803C
:102A800080800000203F210000203F200080989897
:102A9000000000000020203F2020000000000080F7
:102AA0009898000000C08080807F000008F8000037
:102AB00080808000203F24022D302000000808F88C
:102AC000000000000020203F202000008080808047
:102AD00080808000203F20003F20003F80800080D9
:102AE00080800000203F210000203F2000008080E7
:102AF00080800000001F202020201F008080008098
:102B00008000000080FFA12020110E000000008046
:102B100080808000000E112020A0FF808080800037
:102B20008080800020203F21200001000000808064
:102B3000808080000033242424241900008080E059
:102B4000808000000000001F202000008080000026
:102B500000808000001F202020103F208080800007
:102B60000080808000010E30080601008080008017
:102B7000008080800F300C030C300F00008080003C
:102B8000808080000020312E0E3120008080800067
:102B90000080808080818E70180601000080808017
:102BA000808080000021302C2221300000000000B5
:102BB000807C020200000000003F40400000000056
:102BC000FF00000000000000FF0000000002027C87
:102BD000800000000040403F0000000000060101AE
:102BE0000202040400000000000000000C2C000899
:102BF0000000002034000000C0210008402C000824
:102C0000340000201C040000D02100080000000057
:102C100000000000000000000000010203040102A7
:102C200003040607080902040608000000A24A047B
:102C3000000000000000000001020304060708096C
:0400000508000131BD
:00000001FF
